S013000041746D656C424D443130312E73726563B9
S1130000E8210020891200008512000085120000FA
S113001000000000000000000000000000000000DC
S11300200000000000000000000000008512000035
S1130030000000000000000085120000851200008E
S1130040851200008512000085120000B101000035
S11300508512000085120000851200008512000040
S113006085120000510700006107000071070000BD
S11300708107000091070000A1070000851200001D
S113008045120000551200006512000075120000B0
S11300908512000085120000851200008512000000
S11300A0851200008512000010B5064C2378002B41
S11300B007D1054B002B02D0044800E000BF012308
S11300C0237010BD6800002000000000DC2900003F
S11300D008B5084B002B03D00748084900E000BFCF
S11300E007480368002B00D108BD064B002BFBD04A
S11300F09847F9E700000000DC2900006C000020AC
S1130100DC290000000000000C4B1B68002B10D100
S1130110EFF31083002B09D172B6BFF35F8F002277
S1130120074B1A700132074B1A7002E00022054B8C
S11301301A70024A13680133136070478400002068
S11301400000002088000020084B1A68013A1A6059
S11301501B68002B09D1064B1B78002B05D001220C
S1130160044B1A70BFF35F8F62B67047840000209F
S11301708800002000000020F0B583B001AC012508
S113018065700027A77025705B20211C064EB047C0
S113019080221205054B9A61277065704120211C4D
S11301A0B04703B0F0BDC046BD020000006100418D
S11301B070B50022154B1A7000231F25144E134CE2
S11301C01F2B19D90FE0002100E012494A619B005E
S11301D09B59002B00D0984723780133DBB223705E
S11301E00F2BEDD911E0291C194001228A4000216E
S11301F049691142E7D1EFE7291C194001228A40DD
S1130200044949691142E0D1E6E770BDD0000020FD
S1130210D400002000280040064A117802230B4332
S113022013700221012053681942FCD1536818420B
S1130230F9D170470028004000B583B0184A5369CB
S11302408021C9000B43536101A900230B700320D3
S1130250144B98470320144B9847144A11780123F0
S11302600B4313700221012053681942FCD15368D7
S1130270184209D0F8E704C38B42FCD108220C4B86
S11302801A600C4B984709E0084A137810218B43F5
S11302901370094B191C40310022ECE703B000BD78
S11302A0000800408D1000002510000000280040C8
S11302B000E100E019020000D400002000B583B082
S11302C001AB80221A700A785A704A789A708A7838
S11302D0DA70191C014B984703B000BD8911000066
S11302E010B54908402481420CD30023091A013374
S11302F09BB28842FAD9013B9BB24024FF2B01D820
S113030013800024201C10BDF0B55F4656464D46B0
S11303104446F0B489B01C1C12AB1B78061C5E4327
S113032040258E4200D9C7E0251C07920C1C021CF4
S1130330002D51D1181C00210023634DA84783468A
S1130340261C002700230024029303940022002388
S11303503F2020218C461F390096019720246442B7
S1130360041903D40D1CA540A84604E06446241ACD
S11303700D1CE540A8460C1C8440A146141C1D1C01
S1130380A4185D41221C2B1C5E4647463E4203D006
S11303900E1C2643321C2B1C019C9C4210D802D1FB
S11303A0009C94420CD8009C019D121BAB414D460D
S11303B0029E039F35433C1C4646344302950394F6
S11303C00138CBD20022012302980399121A8B41DF
S11303D0110C1B0419436CE00021012D69D1610F3C
S11303E00F1CE1008846181C00210023364CA0474E
S11303F0041C0D1C00239C4620339B4601266346A7
S11304000593B9466B461B7D069300239C4600204A
S113041000213F220094019520235B42D31803D48A
S1130420341C9C40231C04E05B469B1A341CDC40B7
S1130430231C371C9740041C0D1C24184D41201C00
S1130440291C0290039144463C40A2464C4623405A
S11304505446234305D0029B039C1D1C3543281C92
S1130460211C019B8B420AD802D1009B834206D8EF
S1130470009B019CC01AA14163463B439C46013A40
S1130480CAD2009C019D62460599531ADB080F4AA3
S1130490934208D9069A0132D2B206920A1C01325A
S11304A00592082AAED14025069A082A04D05103A1
S11304B01943079B19800025281C09B03CBC9046B1
S11304C09946A246AB46F0BDD5180000FF1F0000B8
S11304D010B582B0041C0E4B1B78002B01D00029F0
S11304E00DD001A90C700F200A4B98470F200A4B1E
S11304F09847074B5C7001221A70002006E0044BF9
S11305005B78834201D01D2000E0002002B010BDC2
S11305108C0000208D10000025100000444B9842F0
S113052033D006D8434B98420DD0434B98421BD04E
S11305306FE0424B98424AD0414B984258D0414BCD
S1130540984266D132E0012906D0002963D00229FD
S113055006D0032906D001E03B4867E0002065E0AF
S11305603A4863E03A4861E0012906D0002954D0B2
S1130570022906D0032906D001E0364856E00020BF
S113058054E0354852E0354850E0012906D00029AE
S113059045D0022906D0032906D001E0304845E0C1
S11305A0002043E02F4841E02F483FE0012906D0D6
S11305B0002936D0022906D0032906D001E02B48B1
S11305C034E0002032E02A4830E02A482EE00129B5
S11305D006D0002927D0022906D0032906D001E03D
S11305E0254823E0002021E024481FE024481DE0A2
S11305F0012906D0002918D0022906D0032906D0E3
S113060001E0204812E0002010E01F480EE01F48DF
S11306100CE000200AE01E4808E01E4806E01E48E0
S113062004E01E4802E01E4800E01E487047C04631
S1130630000C004200040042000800420014004282
S113064000180042001000420200090002000A00E3
S113065002000B000200110002001200020013004D
S11306600300170003001400030015000200350006
S1130670020020000200210002000D0002000E0012
S113068002000F0003003F000300360003003700A0
S113069002000800020010000300160002002200FD
S11306A002000C0003003E0030B587B00C4B6A46D4
S11306B032CB32C232CB32C2009B834206D00123FA
S11306C09A0069465258824203D100E00023D8B20E
S11306D003E00133062BF3D1002007B030BDC04640
S11306E0CC2800007047C046F0B50A4B1B78002B9D
S11306F00CD1094F094E0A4D0024DE515A191460D9
S11307000433182BF9D10122024B1A708000024BDA
S1130710C150F0BD8E00002090000020E5060000CE
S11307201401002010B582B0041C68460549062255
S1130730054B9847201C054B98476B46185602B04A
S113074010BDC046E428000075190000A906000089
S113075008B5024B1B680020984708BD9000002094
S113076008B5024B5B680120984708BD9000002043
S113077008B5024B9B680220984708BD90000020F2
S113078008B5024BDB680320984708BD90000020A1
S113079008B5024B1B690420984708BD900000204F
S11307A008B5024B5B690520984708BD90000020FE
S11307B0F0B55F4656464D464446F0B48DB0051C30
S11307C00C1C161C2960081CCD4B98472268052375
S11307D0D20700D5C4E122681733920700D5BFE1E0
S11307E0C849CA69471C1B3BBB401343CB610BA9D7
S11307F04927F35D0B701030C3B20393181CC24B2E
S113080098470398C14B9847F05D0021C04B984727
S1130810F37A6B714023F35CAB714123F35CEB71AE
S1130820F37E2B72337F6B722023F35CAB722B68E5
S11308309846181CB24B984700220E2302A98C46F6
S113084063441A80338A8022D20193420ED004D8A2
S113085080229201934213D01CE0C022D201934221
S113086013D080221202934205D013E0082293464B
S11308700022924612E003229346002292460DE0A3
S1130880102293460F3A924608E008229346073A0C
S1130890924603E01022934600229246F76832689B
S11308A01743726917433B43377E3F023B4342225F
S11308B0B75C7F071F430397736899462023F35C53
S11308C0002B00D111E1736A99460E2302AA9446C3
S11308D06344B28F1A8036E04323F35C002B32D199
S11308E0F36B9A46C0B28B4B9847011C50460E22BC
S11308F002AB9C466244884B984721E04323F35C57
S1130900002B0BD05B460093F06B716C0E2202AB94
S11309109C4662445346814FB84711E0F36B1F1C59
S1130920C0B27C4B9847011C5B460093381C0E22D6
S113093002AB9C4662445346784FB84700E000201F
S1130940031E00D00CE1737E002B02D0B37E42461E
S113095093732A68D369002BFCD10E3302AA944600
S113096063441B88424693814B46039F1F434323A2
S1130970F35C002B01D104331F43317F4902737EA2
S11309809B0219433923F25C120211430733F25CD0
S113099052040B1C13434122B15C09041943202364
S11309A0F35C002B20D02823F35C002B03D1E0233D
S11309B0DB041F4301E05A4B1F4380235B05726A2B
S11309C000209A4223D1B37A1943306BF36A184357
S11309D02923F25C223B13400343726B1005E0228F
S11309E0D2031040184312E0F37A19433389FF2BE2
S11309F005D08022520417431943002007E0F37EF8
S1130A000020002B03D08023DB041F43FFE748238F
S1130A10F35C002B03D1434B9B789B0701D58023C8
S1130A201F432A68D369002BFCD1434659602A68C6
S1130A30D369002BFCD143461F601A68F0231B05C1
S1130A401340E022D20493420DD043469B68072210
S1130A5093434246936092683823F35C07210B402A
S1130A601343424693602023F35C002B66D02A682C
S1130A70D369002BFCD1434698605FE0F1B2B30028
S1130A8006AA9858002802D1201C274B9847431CDB
S1130A9008D002AB20229B181870000CC0B20AA91F
S1130AA0224B98470136042EE8D10023EB602B61DA
S1130AB06B61AB61EB612B62AB626B620022EB8515
S1130AC0AB853033EA540133EA540133EA54013339
S1130AD0EA5428680A4B9847041C1549154B984753
S1130AE0A400154BE55000233AE010304B46002B90
S1130AF000D103E780235B05994500D1ECE61EE7AE
S1130B00A9060000000800408D1000002510000018
S1130B10D1040000B1100000E1020000090300004C
S1130B2000060007002000411D0500008911000097
S1130B309D0B0000E9060000140100200AAB80228E
S1130B401A7000225A70DA709A70F36C0693336D3F
S1130B500793736D0893B36D0393099300268DE790
S1130B60181C0DB03CBC90469946A246AB46F0BD5D
S1130B7010B50368C4791C22002C0DD0C08D80B23E
S1130B80173A002808D1DA69002AFCD11985022114
S1130B901A7E0A42FCD00022101C10BDF8B5800059
S1130BA0634BC5582C68E369002BFCD1237EA67DDA
S1130BB01E403123EB5C3022AF5C1F40F30722D58B
S1130BC0EB8D9BB2002B1CD0AA6A1378DBB2511CAC
S1130BD0A9626979012901D09BB204E05178090224
S1130BE00B430232AA62DB05DB0D2385EB8D013B4F
S1130BF09BB2EB85002B06D1013323750133A3751A
S1130C0001E001232375B30709D5022323750022CC
S1130C103133EA54FB0702D5281CEB689847730765
S1130C2066D5AB8D9BB2002B60D0638BDBB21A0709
S1130C3001D508229343002B36D09A0707D51A22F0
S1130C403223EA54628B303B1343638326E05A0712
S1130C5007D51E223223EA54628B2E3B134363834F
S1130C601CE0DA0707D513223223EA54628B313BA6
S1130C701343638312E0DA0607D542223223EA548F
S1130C80628B223B1343638308E09B0606D5412213
S1130C903223EA54628B123B134363837B0727D5C9
S1130CA0281C6B69984723E0238DDB05DB0DDAB242
S1130CB0696A0A706A6A511C69626979012904D1F6
S1130CC01B0A53706B6A01336B62AB8D013B9BB2A1
S1130CD0AB85002B0CD10433237500222E33EA5448
S1130CE0BB0705D5281C2B69984701E0042323750D
S1130CF0F30607D5102323752376FB0602D5281C9B
S1130D00EB699847B30607D52023237523763B0761
S1130D1002D5281CAB699847330707D508232375E8
S1130D202376BB0602D52B6A281C9847F8BDC0461B
S1130D301401002008B5072803D880001C4B1B5859
S1130D409F46002032E01B4B18692FE01A4B187D98
S1130D500007800F0130194B584327E0154B5869A1
S1130D6024E0144B1B68022018401FD01249802233
S1130D705200CB681342FCD00E4B1B685B0714D5A2
S1130D8000200F4B98470B4B9B681B041B0C5843CC
S1130D900CE02823084AD35C00209B0706D5054BAA
S1130DA0D86803E08020000200E0064808BDC04681
S1130DB0EC280000A80000200010004000093D00BD
S1130DC0B1100000006CDC0210B584B08022520027
S1130DD02D4B9A60FD3A2D4B9A602D4A53681E2183
S1130DE08B4353602B4B9B78022B0DD0294B9B7864
S1130DF05BB2002B08DB274B01229A7101329A70F7
S1130E001A1C9379002BFCD01F4B1A7D8021494278
S1130E100A431A751A7DC0318A431A751E4AD1696C
S1130E2006230B43D3611D4B98471D4C0123A3712B
S1130E30237101A94B6000234B7005220A700B72C9
S1130E404B720020174B98470020174B98470020FF
S1130E50164B98472379013BD840154B984211D83B
S1130E600C4B9B78002B0DD00A4B9B785BB2002B6C
S1130E7008DB084B01229A7100229A701A1C93799C
S1130E80002BFCD004B010BD00100040001800403E
S1130E90004000410004004000140040B50E000072
S1130EA000080040D90E0000810F0000BD0F0000B3
S1130EB0001BB700064A516980230B43536101228A
S1130EC0044B1A70191C0B781342FCD17047C046AE
S1130ED000080040001C004070B5041C0D784B78DD
S1130EE0002B02D08023DB001D434B7A002B02D061
S1130EF080231B011D434A68012A17D9531E1A4235
S1130F000FD1022A06D90223002001305B009A4245
S1130F10FBD800E0002080235B011D43000405434F
S1130F2004E0120480239B001A4315430B7A002B20
S1130F3002D080239B011D430426A6400D497C2238
S1130F404B6813401E42FBD10B4B9847A400094B3E
S1130F509C466444206A80235B0018402843206236
S1130F6061467C224B6813401E42FBD1034B9847D9
S1130F7070BDC046001C004009010000490100008A
S1130F8010B5041C0422824009487C2143680B40AC
S1130F901A42FBD1074B9847A400054B9C46644476
S1130FA0236A8022520013432362034B984710BDE7
S1130FB0001C00400901000049010000F8B5041CB0
S1130FC00422824012487C2143680B401A42FBD120
S1130FD0104B98470E4F0834A400E35907201840DB
S1130FE00D4B9847061CE559ED04ED0FE459240C0C
S1130FF00A4B9847002D07D1012C07D9301C211C1E
S1131000074B9847061C01E00134E640301CF8BD4C
S1131010001C004009010000350D000049010000DA
S1131020B117000010B5041C084B9847A400084BE6
S1131030E0188022815840230B4383508021403A9A
S113104043581A42FCD0034B984710BD09010000D5
S1131050001C00404901000010B5041C084B9847CF
S1131060A400084BE0188022835840218B4383500E
S11310704031403A43581A42FCD1034B984710BDC3
S113108009010000001C00404901000038B5041C9F
S11310900D1C054B98472B78072213402034A400DD
S11310A0024AA35038BDC04659100000001C00403D
S11310B010B5041C064B98472034A400054BE35894
S11310C007241C40044B9847201C044B984710BD30
S11310D009010000001C004049010000BD0F000090
S11310E030B5D378002B1ED11478802C04D024067C
S11310F080235B021C4300E0002453780225AB43A9
S11311000AD19378002B03D180239B021C4302E075
S1131110C023DB021C4341605378013B012B12D8EE
S1131120184B1C400FE041600B041B0CA024E40589
S1131130234383620B0CD024240623438362D37895
S1131140002B18D01CE00B041B0CA025ED052B4331
S1131150234383620B0CD0252D062B432343836248
S1131160D378002B0CD1630305D59378012B01D1DF
S1131170816100E041615378013B012B00D881601B
S113118030BDC046FFFFFBFF08B5031C0A1CC109A4
S11311900020002904D15809C00105498C46604447
S11311A01F210B401E399940024B984708BDC04689
S11311B000600041E11000007047C04608B5054BCF
S11311C09847054B9847054B9847054B9847054B5F
S11311D0984708BDC90D000079010000B91100004D
S11311E039020000B911000038B58000144BC5580D
S11311F02B689C7A2B7E1C406B7E1C40E30705D534
S1131200281CAB68984701232A689372A30705D565
S1131210281CEB68984702232A689372E30605D5D5
S1131220281C2B69984710232A689372A30605D5B6
S1131230281C6B6998472B6820229A7238BDC046D7
S11312402C01002008B50020014B984708BDC0467A
S1131250E911000008B50120014B984708BDC046BC
S1131260E911000008B50220014B984708BDC046AB
S1131270E911000008B50320014B984708BDC0469A
S1131280E9110000FEE7C04610B51B4B1B4A9A4209
S113129003D01B4B184A9A4204D31A4B1A4A9A4257
S11312A010D31EE0194A164B03339B1A9B080133D3
S11312B09B000022104811498C58845004329A42F1
S11312C0FAD1EAE7124A0F4B03339B1A9B08013306
S11312D09B0000220C4800211418216004329A4219
S11312E0FAD10C4AFF210C4B8B4393600B4B98476C
S11312F00B4B9847FEE7C04600000020DC290000A5
S113130068000020E40100206800002004000020A0
S11313106C00002000ED00E000000000291900002E
S113132049160000F0B5474680B40C1C90460028CE
S113133010D1002A0ADD8F18094E0A4D3068211C8D
S11313402B6898470134BC42F8D101E00023984649
S1131350404601E00120404204BC9046F0BDC04636
S1131360440100203C010020F0B5474680B4013818
S1131370022815D8002A10D0151C0E1C00240C4B72
S113138098460C4F43461868315D3B6898470028DF
S113139009DB0134A542F5D100E00024201C04E05F
S11313A00120404201E00120404204BC9046F0BDCF
S11313B04401002040010020031C064A1268002A50
S11313C002D10549034A1160024A1068C318136028
S11313D07047C046C0000020E821002001204042A0
S11313E07047C04680239B014B6000207047C04675
S11313F00120704700207047F0B585B0002202AB91
S11314005A70794B1B6804211A7E0A42FCD01A8D4B
S1131410D2B202A94A704A78D2B20020AA2A00D0D5
S1131420DFE0002102AA917004311A7E0A42FCD046
S11314301A8DD2B202A98A708A78D2B20020AA2A5E
S113144000D0CEE0002102AAD17004311A7E0A42F3
S1131450FCD01A8DD2B202A9CA70CA7863490A8034
S1131460042A55D1081C0F1C10370025002604211E
S113147003AA16701A7E0A42FCD01A8DD2B203ACAB
S113148022702278D2B24260AD180430B842EFD153
S1131490574A15600421574A1160002102AA51716C
S11314A004311A7E0A42FCD01B8DDBB202AA5371AE
S11314B05379DBB248224D498B524D490878B732F3
S11314C082430A6000209A4200D08AE04749002300
S11314D048228B52464A13608B894B630A8A8A637B
S11314E01B0245490B60134380221202934202D827
S11314F03E4AD36304E0414A944663443B4AD3637F
S113150042233A4AD35A0020C82B6AD1D06B68E0F0
S11315100020122A65D13A4C271C4837002502AA1C
S1131520901D0026042106701A7E0A42FCD01A8DF2
S1131530D2B202700278D2B204C4AD18BC42F2D165
S11315402B4A156012212F4A1160002102AAD17181
S113155004311A7E0A42FCD01B8DDBB202AAD3717D
S1131560D379DBB2482221498B5221490878B7321A
S113157082430A6000209A4233D11C4B0022482146
S11315805A521B490A609E8840329A5A1D89422148
S1131590595A9889019044201C5A188A4627DF5BBF
S11315A00023012B06D0002B0AD0022B04D0032BDE
S11315B004D006E0291C04E0019C02E0071C00E0C2
S11315C0321C0133122BECD1084B44201C52023044
S11315D01F5212240C4804604220195240215A52CE
S11315E0002005B0F0BDC046A80100205401002031
S11315F0C4000020A40100204C0100200000FFFFD3
S11316005801002048010020A001002082B00022DF
S11316106B46DA7102680421137E0B42FCD0138DF1
S1131620DBB26A46D371D079C0B202B07047C0460B
S113163070B5051C8CB2034E281C211CB047002831
S1131640FAD170BD710B0000F0B59BB000240025E9
S113165063236B441C70424B984701AA8023DB052B
S113166001935460FF2313819472D4720126BF3B0B
S1131670D6540133D6540133D4540133D45454646E
S11316800533D4540133D454546114820023D376E3
S1131690157615775576132393760D33D554022199
S11316A00933D15480235B0553622823D554D46273
S11316B01463213B53633233D554013BD554C423C3
S11316C09B03D36001235B42D3641365254B5365AD
S11316D0254B9365E1231B02D363244C244B1C60EC
S11316E02449254B19602549254B1960201C25499F
S11316F0254B9847254F3B6898680021244DA847FF
S11317003B6858680021A8472568281C214B984746
S11317101F2318408640204B1E602368DA69002A84
S1131720FCD12A68022313432B6019A901234B70AF
S113173000228A700B705B20184B98478022120598
S1131740174B9A61174E184C184DB047C0B263231B
S11317506B4418701978C9B2201CA847F5E7C04635
S1131760BD11000002000E0002000F00A8010020BD
S11317704401002031160000400100200D16000035
S11317803C01002000140042B10700006400002066
S1131790CD1900002507000000E100E0BD020000B3
S11317A000610041F91300000C29000099190000A0
S11317B0002243088B4274D303098B425FD3030A8C
S11317C08B4244D3030B8B4228D3030C8B420DD39F
S11317D0FF22090212BA030C8B4202D3121209022D
S11317E065D0030B8B4219D300E0090AC30B8B426B
S11317F001D3CB03C01A5241830B8B4201D38B0319
S1131800C01A5241430B8B4201D34B03C01A5241BD
S1131810030B8B4201D30B03C01A5241C30A8B4200
S113182001D3CB02C01A5241830A8B4201D38B02EB
S1131830C01A5241430A8B4201D34B02C01A52418F
S1131840030A8B4201D30B02C01A5241CDD2C30901
S11318508B4201D3CB01C01A524183098B4201D37D
S11318608B01C01A524143098B4201D34B01C01A68
S1131870524103098B4201D30B01C01A5241C308E0
S11318808B4201D3CB00C01A524183088B4201D34F
S11318908B00C01A524143088B4201D34B00C01A3B
S11318A05241411A00D20146524110467047FFE7A7
S11318B001B5002000F00CF802BDC0460029F7D0A5
S11318C003B5FFF775FF0EBC4243891A1847C0469B
S11318D07047C046F0B54F46464605042D0C2C1CF7
S11318E0C0B41704160C3F0C9946030C7C43754393
S11318F05F4373437D19260CAD199C46AF4203D94F
S113190080235B029846C4444B465143434324041A
S11319102E0C240C2D0466442C1959188919201CEA
S11319200CBC90469946F0BD0E4B70B500251E1CAC
S11319300D4CE41AA410A54204D0AB00F358984708
S11319400135F8E701F03AF8084B00251E1C084C55
S1131950E41AA410A54204D0AB00F358984701350B
S1131960F8E770BDC8290000C8290000C829000094
S1131970CC290000002310B5934203D0CC5CC4549E
S11319800133F9E710BD031C8218934202D0197089
S11319900133FAE7704700000FB40B4B13B51C6812
S11319A0002C05D0A369002B02D1201C00F096F96D
S11319B005AB201CA168049A019300F0F1FA16BC4F
S11319C008BC04B01847C0466400002008B54A4269
S11319D04A4180235200DB0000F002F808BD0000F9
S11319E0F7B51E1C3C4B041C1D680F1C0192002DF6
S11319F005D0AB69002B02D1281C00F06FF9374BDE
S1131A009C4201D16C6808E0354B9C4201D1AC6822
S1131A1003E0344B9C4200D1EC68019B022B58D864
S1131A20002E56DB281C211C00F0EAF8002363601A
S1131A30A361A3891B0603D5281C216900F0EAF9D8
S1131A408322A3899343A381019B022B13D0002FEC
S1131A5025D1002E01D18026F600301C00F0D0F9EB
S1131A60071E18D18020C00000F0CAF9071E10D14B
S1131A700120404200E000200222A3891343A381F5
S1131A800023A360231C4733236023610123636184
S1131A9021E08026F6008022A3891343A381019BC1
S1131AA0012B05D1A389019A1A437342A281A36130
S1131AB00D4B0020AB62A289276027616661130782
S1131AC009D503231A40534253415B421E40A6608A
S1131AD001E001204042FEBD6400002028290000EE
S1131AE04829000068290000591C0000F7B58A89BC
S1131AF0051C0C1C13075ED44B68002B02DC0B6C1A
S1131B00002B1ADDE76A002F17D000232E682B6004
S1131B1080235B011A4001D0626D15E0281C216A04
S1131B200123B847021C431C0ED12B68002B0BD099
S1131B301D2B01D0162B02D12E6000205EE0402127
S1131B40A3890B43A38159E0A3895B0706D5636886
S1131B50D21A636B002B01D0236CD21A0023281CE9
S1131B60216AE76AB847A389421C06D12A68002A79
S1131B7003D01D2A01D0162A19D1002262602269DD
S1131B802260DB0405D5431C02D12B68002B00D155
S1131B906065616B2E600029CFD0231C44339942C9
S1131BA002D0281C00F036F90020606326E04022B1
S1131BB01343A38122E00F69002FBED00B680F608E
S1131BC0DB1B01930023920700D14B69A360019BA7
S1131BD0002BB2DD281C216A3A1C019BA66AB0477F
S1131BE0002806DC40220120A38940421343A3813C
S1131BF004E0019B3F181B1A0193E8E7FEBD0000B7
S1131C0038B50B69051C0C1C002B01D100201CE00D
S1131C10002804D08369002B01D100F05FF80B4B3E
S1131C209C4201D16C6808E0094B9C4201D1AC682C
S1131C3003E0084B9C4200D1EC680C22A35E002B0D
S1131C40E4D0281C211CFFF751FF38BD28290000CF
S1131C50482900006829000008B5024900F0AEF8E0
S1131C6008BDC046011C0000002310B5041C03601D
S1131C704360836081814366C28103614361836100
S1131C80191C08225C30FFF77EFE054B2462636258
S1131C90044BA362044BE362044B236310BDC046B0
S1131CA0F124000019250000512500007D250000C5
S1131CB070B568254B1E5D430E1C291C743100F061
S1131CC0EFF8041E08D000212A1C016046600C3085
S1131CD0A0606832FFF757FE201C70BD836913B5FE
S1131CE0002B28D18364C3640365134B134A1B6818
S1131CF082620193984201D101238361041C00F0A4
S1131D001FF86060201C00F01BF8A060201C00F08D
S1131D1017F80421E06000226068FFF7A5FFA068BF
S1131D2009210122FFF7A0FFE06812210222FFF738
S1131D309BFF0123A36113BD24290000591C00004B
S1131D40F8B51D4B061C1D68AB69002B02D1281C7D
S1131D50FFF7C4FF4835AC686B68013B05D40C221F
S1131D60A75E002F10D06834F7E72B68002B06D14C
S1131D70301C0421FFF79CFF2860002801D02D6847
S1131D80E9E70C23336016E00123201C5B42E38166
S1131D900233A38167662760A76067602761676174
S1131DA0A7615C30391C0822FFF7EDFD201C676336
S1131DB0A763A764E764F8BD24290000F7B5041CF1
S1131DC0071C002601914834002C16D06368A568CE
S1131DD00093009B013B00930DD4AB89012B08D9E0
S1131DE00E22AB5E013304D0381C291C019B98479A
S1131DF006436835EDE72468E6E7301CFEBD0000C5
S1131E0008B5034B011C186800F04AF808BDC04629
S1131E106400002030B500293ED004390B68002B43
S1131E2000DAC9181D4A1368141C002B02D14B6038
S1131E30116031E099420DD208680A189A4203D120
S1131E401368C3180B6053684B60216024E08A4216
S1131E5003D8131C5A68002AF9D11D685C198C42F6
S1131E600BD10968691858181960904214D1106888
S1131E705268091819605A600EE08C4202D90C238A
S1131E80036009E008680C18944203D1146852688E
S1131E90001908604A60596030BDC046CC0000207B
S1131EA0032370B5CC1C9C430834051C0C2C01D2B4
S1131EB00C2405E0002C03DA0C2300202B6042E004
S1131EC08C42F9D3204A1368101C191C002913D022
S1131ED00A68121B0DD40B2A02D90A608B181FE062
S1131EE08B4202D15A6802601BE04A685A600B1C9C
S1131EF017E00B1C4968E9E7144E3368002B03D143
S1131F00281C00F0E3FA3060281C211C00F0DEFAE3
S1131F10031C421CD0D00322C61C964386420AD11D
S1131F201C60181C07210B301A1D8843821A0AD022
S1131F305142995007E0311A281C00F0C7FA431C9B
S1131F40BAD0331CECE770BDCC000020C8000020E0
S1131F50936810B5013B9360002B05DA9469A342A2
S1131F6008DBCBB20A2B05D01368581C106019701B
S1131F70C8B201E000F008FB10BDF8B5061C0F1C48
S1131F80141CD518AC4208D02178301C3A1CFFF739
S1131F90DFFF0134431CF5D100E00020F8BD000050
S1131FA0F0B59FB0061C0F1C02920593002804D0C4
S1131FB08369002B01D1FFF791FE794B9F4201D138
S1131FC0776808E0774B9F4201D1B76803E0764B0E
S1131FD09F4200D1F768BB891B070AD53B69002BD8
S1131FE007D0002306AD6B6120336B761033AB76DC
S1131FF03DE0301C391C00F033FB0028F1D00120F7
S11320004042CAE0059A111D12680591002A7EDB40
S11320100992013423782E2B00D189E0217863487A
S1132020032200F00FFC002808D0604B0134C01AD2
S113203040238340181C2B68184328602178631CB4
S11320405B4806220293297600F0FCFB002800D1AD
S113205091E0584B002B00D084E00722059B073306
S11320609343083305936B69039A9B186B61029C35
S11320702378002B04D1029BE31A049311D003E0CC
S1132080252BF8D00134F3E7049B301C391C029A49
S1132090FFF773FF431C7BD06A69049B9446634437
S11320A06B612378002B73D00122002352426A60B3
S11320B002A95432521801342B60EB60AB601370E8
S11320C0AB6521783C48052200F0BCFB002809D010
S11320D0394B0134C01A01238340181C2B68184360
S11320E02860EEE72B68DA0604D55322202102A8E3
S11320F0121811701A0704D553222B2102A81218A2
S1132100117022782A2A00D17CE7099B05E052420B
S1132110EA60022213432B607BE72278303A092AD3
S113212004D80A214B4301349B18F6E7099371E75D
S113213063782A2B09D1059B02341A1D1B6805926A
S1132140002B0DDA01235B420AE0002301342278DC
S1132150303A092A04D80A214B4301349B18F6E784
S113216007935BE705AB0093301C291C3A1C134B07
S113217000E000BF07E005AB0093301C291C3A1CAB
S11321800E4B00F08BF80390039B013300D06AE7F9
S1132190BB895B0600D532E70B981FB0F0BDC04683
S11321A02829000048290000682900008E29000021
S11321B09229000000000000882900007B1F000015
S11321C0F7B5171C01930A698B6800900C1C9342A5
S11321D000DA131C221C3B6043321278002A01D01F
S11321E001333B6023689B0602D53B6802333B60A6
S11321F0062523681D401ED0231C43331B785A1E1A
S11322009341226892061CD53020E1184031C870F1
S1132210211C5A1C45310978A21840320233D1706E
S11322200FE0221C0123009801991932089EB0473F
S1132230431C0ED00135E3683A689B1A9D42F0DBDB
S1132240DAE7221C009801994332089DA847431CF1
S113225002D10120404220E006232068E1683A6868
S113226003400025042B03D18D1AEB43DB171D40DB
S1132270A3682269934201DD9B1AED180027AF423F
S11322800ADA221C0123009801991A32089EB047E9
S1132290431CDED00137F2E70020FEBDF0B58BB061
S11322A006920A1C43320793059004920A7E0C1C82
S11322B0109B6E2A00D1A8E011D8632A22D009D835
S11322C0002A00D1B2E0582A00D0C2E045310A7099
S11322D07C4A4FE0642A1DD0692A1BD0B9E0732AD6
S11322E000D1A7E009D86F2A29D0702A00D0B0E025
S11322F0202209680A43226037E0752A1FD0782A11
S113230033D0A6E00E1C1A684236111D19601368FA
S11323103370A1E021681A68080606D4490604D57A
S1132320111D19600023D55E02E0111D19601568A6
S1132330002D3BDA2D23049A6D42137036E0216898
S11323401A68080606D4490604D51568111D1960D3
S1132350ADB202E0111D196015685A4B227E039339
S11323600A276F2A1DD108271BE0221C7821453239
S11323701170554A19680392081D226818600D6887
S1132380100602D4500600D5ADB2D30702D52023DF
S11323901A4322601027002D03D1202322689A4378
S11323A02260231C002243331A7002E00A27454BA3
S11323B003936368A360002B03DB04222168914329
S11323C02160002D02D1049E002B0ED0049E281CF7
S11323D0391CFFF773FA039B013E5B5C281C3370C6
S11323E0391CFFF7E5F9051EF1D1082F09D123683F
S11323F0DB0706D563682269934202DC3023013E81
S11324003370049B9B1B23612BE009681A68080640
S113241007D4490605D5111D19601368A28A1A80CC
S113242004E0111D1960136862691A600023049E98
S1132430236116E01A68111D196016680021301C0A
S1132440626800F0FFF9002801D0801B60606368B7
S113245003E0261C42363270012323610023049AD0
S11324601370079B05980093211C069B09AAFFF78C
S1132470A7FE431C02D10120404221E023690598B4
S11324800699321C079DA847431CF4D023689B0778
S113249005D4099BE068984212DA181C10E0002564
S11324A0E368099A9B1A9D42F3DA221C01230598DA
S11324B006991932079EB047431CDCD00135EFE77B
S11324C00BB0F0BD99290000AA29000038B50023FB
S11324D0064C051C081C2360FEF76EFF431C03D149
S11324E02368002B00D02B6038BDC046E0010020DB
S11324F038B50C1C0E25495F00F0B0F9002803DB49
S1132500636D1B18636503E0A289024B1340A3812A
S113251038BDC046FFEFFFFFF8B51E1C8B89051CB4
S11325200C1C171CDB0505D50E23C95E00220223F3
S113253000F01CF9A289054B281C1340A3813A1C06
S11325400E23E15E331C00F077F8F8BDFFEFFFFFC8
S113255038B50C1C0E25495F00F008F9A389421C0C
S113256003D1054A1340A38104E08022520113439E
S1132570A381606538BDC046FFEFFFFF08B50E2399
S1132580C95E00F0E1F808BD70B5051C0E1C141CF2
S1132590002804D08369002B01D1FFF79FFB234B54
S11325A09C4201D16C6808E0214B9C4201D1AC688B
S11325B003E0204B9C4200D1EC68A369A360A3898B
S11325C01B070AD52369002B07D023682269F6B2BA
S11325D0981A636998420FDB08E0281C211C00F05C
S11325E03FF80028F1D0012040421DE0281C211CA6
S11325F0FFF706FB0028F6D1A3680130013BA36076
S113260023685A1C22601E706369984205D0A3890E
S1132610301CDB0708D50A2E06D1281C211CFFF725
S1132620EFFA0028DFD1301C70BDC0462829000015
S1132630482900006829000038B5051C0020074C13
S11326402060081C111C1A1CFEF78EFE431C03D1CB
S11326502368002B00D02B6038BDC046E001002069
S1132660354B70B51D68061C0C1C002D05D0AB69DC
S1132670002B02D1281CFFF731FB304B9C4201D1C7
S11326806C6808E02E4B9C4201D1AC6803E02D4BF2
S11326909C4200D1EC68A3899AB2110723D4D106D5
S11326A007D409220120326037321343A381404208
S11326B040E0530713D5616B002908D0231C443331
S11326C0994202D0301CFFF7A5FB00236363242248
S11326D0A3899343A38100236360236923600822B1
S11326E0A3891343A3812369002B0BD1A023A289BF
S11326F09B00134080229200934203D0301C211C83
S113270000F048F80123A289134005D00023A360F8
S113271063695B42A36103E0910700D46369A3602A
S113272000202369834205D1130603D540231A43AD
S1132730A281013870BDC046640000202829000031
S1132740482900006829000038B50023064C051C00
S1132750081C2360FEF742FE431C03D12368002BB0
S113276000D02B6038BDC046E001002038B5051C00
S11327700020074C2060081C111C1A1CFEF73AFEAE
S1132780431C03D12368002B00D02B6038BDC04606
S1132790E0010020F0B58B8991B09B0706D50B1C96
S11327A047330B600B6101234B6145E00C1C0E2386
S11327B0C95E061C002904DA8023A5891D4010D1B6
S11327C00CE001AA00F05EF80028F5DBF023029D7E
S11327D01B021D40194BED186B425D418027FF0021
S11327E001E000254027301C391CFFF759FB002865
S11327F00CD1A3899A051FD402221343A381231C5D
S11328004733236023610123636115E080220C4B6D
S1132810B362A38920601343A38120616761002D03
S11328200AD00E23E15E301C00F03EF8002803D0ED
S11328300122A3891343A38111B0F0BD00E0FFFF7F
S1132840591C0000C9B28218904204D003788B420C
S113285002D00130F8E700207047000038B5051CAD
S11328600020074C2060081C111C1A1CFEF75AFD9E
S1132870431C03D12368002B00D02B6038BDC04615
S1132880E001002038B50023064C051C081C111C6F
S11328902360FEF7A7FD431C03D12368002B00D05F
S11328A02B6038BDE001002038B50023064C051C20
S11328B0081C2360FEF79CFD431C03D12368002BF6
S11328C000D02B6038BDC046E00100200004004267
S11328D000080042000C00420010004200140042B4
S11328E000180042090A0B0C0D0E0000460D0000F2
S11328F0420D0000420D0000A40D00005C0D00001C
S11329004C0D0000620D0000920D00000A52617728
S11329105F646174612069732025640A000000000B
S1132920430000000400002000000000000000003C
S11329300000000000000000000000000000000093
S11329400000000000000000000000000000000083
S11329500000000000000000000000000000000073
S11329600000000000000000000000000000000063
S11329700000000000000000000000000000000053
S11329800000000000000000232D302B2000686CA4
S11329904C0065666745464700303132333435367E
S11329A037383941424344454600303132333435B7
S11329B0363738396162636465660000F8B5C0462D
S11329C0F8BC08BC9E467047D1000000F8B5C0466C
S10F29D0F8BC08BC9E467047A90000003B
S11329DC0100000000000000282900004829000024
S11329EC6829000000000000000000000000000046
S11329FC000000002029000000000000000000007E
S1132A0C00000000000000000000000000000000B6
S1132A1C00000000000000000000000000000000A6
S1132A2C0000000000000000000000000000000096
S10B2A3C00000000040000206A
S903128961
